:02000002D0002C
:1040000000400D0084530D00000006000C00050167
:084010000401E80500000000B6
:04401800F04F0D0058
:10401C0009480A49884208B505D0094A824202D0AB
:10402C00121A00F09BFF0748074A0021121A00F0F1
:10403C00A0FF014808BD00BF8CE40320F4520D0022
:10404C00F4E40320F4E40320F0E7032070B500F05F
:10405C00CDFA074C074BE41AA40800251E46A542CE
:10406C0004D056F8253098470135F8E770BD00BFED
:10407C00F0520D00B8520D0000F015B808B500F064
:10408C0013F8BDE8084000F073BA00F045B900F031
:10409C004BB900F049B90078B0FA80F0400970478C
:1040AC000123037070477047704700F011B800008F
:1040BC0008B5024B1B689B68019308BD680203009E
:1040CC0008B5024B1B68DB68019308BD680203004E
:1040DC0008B5024B1B681B68019308BD2C0203003A
:1040EC0008B5024B1B685B68019308BD18020300FE
:1040FC0008B5024B1B685B69019308BD18020300ED
:10410C0008B5024B1B689B68019308BD480203006D
:10411C0008B5024B1B681B69019308BD48020300DC
:10412C0008B5024B1B685B69019308BD480203008C
:10413C0008B5024B1B685B6C019308BD4802030079
:10414C0008B5024B1B689B6C019308BD4802030029
:10415C0008B5024B1B685B69019308BD6402030040
:10416C0008B5024B1B681B68019308BD3C02030099
:10417C0008B5024B1B68DB68019308BD3C020300C9
:10418C0008B5024B1B681B69019308BD3C02030078
:10419C0008B5024B1B685B69019308BD3C02030028
:1041AC0008B5024B1B689B69019308BD3C020300D8
:1041BC0008B5024B1B68DB69019308BD3C02030088
:1041CC0008B5024B1B689B6A019308BD3C020300B7
:1041DC0008B5024B1B681B68019308BD4C02030019
:1041EC0008B5024B1B681B69019308BD4C02030008
:1041FC0008B5024B1B685B69019308BD4C020300B8
:10420C0008B5024B1B689B69019308BD4C02030067
:10421C0008B5024B1B68DB69019308BD4C02030017
:10422C0008B5024B1B681B6A019308BD4C020300C6
:10423C0008B5024B1B685B68019308BD20020300A4
:10424C0008B5034B1B68D3F88830019308BD0000F8
:10425C002002030008B5034B1B68D3F8943001937C
:10426C0008BD00002002030008B5024B1B685B6808
:10427C00019308BD4002030008B5024B1B689B6804
:10428C00019308BD4002030008B5024B1B68DB68B4
:10429C00019308BD4002030008B5024B1B681B6963
:1042AC00019308BD4002030008B5024B1B685B6913
:1042BC00019308BD4002030008B5024B1B689B69C3
:1042CC00019308BD4002030008B5024B1B68DB6973
:1042DC00019308BD4002030008B5024B1B681B6A22
:1042EC00019308BD4002030008B5024B1B681B6B11
:1042FC00019308BD4002030008B5024B1B685B6BC1
:10430C00019308BD4002030008B5024B1B68DB6B30
:10431C00019308BD4402030008B5024B1B681B68DF
:10432C00019308BD1C02030008B5024B1B685B68B7
:10433C00019308BD1C020300002211464068FFF7E0
:10434C00CBBF002211464068FFF7D6BF0022406861
:10435C00FFF7CABF002281F001014068FFF7B4BF2C
:10436C0000231A4619464068FFF7A6BF00231A46D9
:10437C0019464068FFF798BF002211464068FFF7C6
:10438C008BBF002211464068FFF776BF0022022146
:10439C004068FFF779BF00231A464068FFF764BFF7
:1043AC00024B03225A60024A1A607047F8E4032059
:1043BC000C500D0010B50446006818B1FFF7B4FF9F
:1043CC000023236010BD10B50446FFF7F3FF204611
:1043DC0010BD000010B5094C00204FF6FF73206093
:1043EC00A080A07120816381FFF722FF2046044A40
:1043FC000449BDE8104000F053BC00BF00E50320A9
:10440C00F4E40320D3430D0010B50446006808B152
:10441C00FFF796FE204610BD10B5064C0023204633
:10442C002360FFF785FE2046034A0449BDE810408F
:10443C0000F036BC0CE50320F4E4032015440D0019
:10444C00F8B506460D468F180024BD420CD03368D3
:10445C0015F8011B9B6830469847002801DB044483
:10446C00F3E7002C08BF04462046F8BD70B505469E
:10447C000C46084649B100F0ADFD2B6802462146BA
:10448C002846DB68BDE87040184770BD03689B6820
:10449C00184730B58BB00B4600218DF82410012A3B
:1044AC0098BF0A220DF12304B3FBF2F505FB12337E
:1044BC0003F0FF03092B94BF30333733DBB22146B3
:1044CC0004F801392B46002DEED1FFF7CFFF0BB0CE
:1044DC0030BD0000014B024A1A60704710E5032002
:1044EC00AB500D00024B1A68024B1A60704700BFAC
:1044FC008CE4032014E5032010B58368044613B143
:10450C00032201469847204610BD10B50446FFF71C
:10451C00F3FF204610BD00000348044A0449002361
:10452C00836000F0BDBB00BF18E50320F4E403205A
:10453C0017450D0008B50C4B33B100F053F9036867
:10454C001B699847002809DC084B63B100F0C8F9D7
:10455C0003681B699847002803DC08BDAFF3008093
:10456C00F2E7AFF3008008BD00000000000000007F
:10457C0008B5FFF7DFFFFFF7BBFD014B186008BD67
:10458C004CE703200248034A0349121A00F0E6BC28
:10459C0000F4032004F40320F0520D0007B50023AF
:1045AC0000931A466FF07701FFF754FE03B05DF8E5
:1045BC0004FB000007B543880A2B08D0502B09D107
:1045CC00094B1B683BB103B05DF804EB1847FFF7D0
:1045DC00E5FF06E0002300931A466FF07701FFF722
:1045EC0039FE03B05DF804FB28E5032038B5104C08
:1045FC00104D2368AB42104B0CBF012200221A70E5
:10460C0002D0FFF7BFFF2560FFF76AFD044600F0FC
:10461C00B9FC0A4B13B12046AFF3008000210748C8
:10462C00FFF772FE00210648BDE83840FFF708BED0
:10463C0000F403201E1C279A2CE503200000000028
:10464C00C1450D00704710B51821044600F02DFB34
:10465C00204610BDF0B5037D062B8DB00E4600F143
:10466C0004074FF0000402D000F1080518E00CAD6F
:10467C00394605F8304D2F232A460A20FFF768FDEE
:10468C00284600F0A7FC33680246DB682946304612
:10469C0098470FE024B12E213046FFF7F7FE044473
:1046AC0015F8011D0A223046FFF7F3FEBD42044403
:1046BC00F0D120460DB0F0BD10B5054B04461122CB
:1046CC0040F8043B002100F054FC204610BD00BF14
:1046DC004C510D000346074A10B543F8042B01F169
:1046EC00100251F8044B43F8044B9142F9D10A786B
:1046FC001A7010BD4C510D0010B59DF8084044EADD
:10470C00032343EA024242EA016104234160037538
:10471C0010BD37B50D788B784A78C9780091294649
:10472C00FFF7EAFF03B030BD41747047704708B51E
:10473C000021007CFFF764FD30EA200028BF4FF019
:10474C00FF3008BD08B50121007CFFF759FD30EAA8
:10475C00200028BF4FF0FF3008BD08B5007CFFF7E4
:10476C0047FD20EAE07008BD08B5007CFFF738FD76
:10477C0020EAE07008BD007CFFF752BD10B5142193
:10478C00044600F092FA204610BD38B50446007C71
:10479C000D46FFF72DFD002801DC607C28B1294671
:1047AC00207CFFF735FD20EAE07038BD10B50446DB
:1047BC00002363604FF47A73A360054B23600123DD
:1047CC000846217463741146FFF702FD204610BDA4
:1047DC0060510D0010B514220446002100F0C9FBF5
:1047EC00204610BD30B50E4D87B001A8FFF7F2FF83
:1047FC00296811F0010410D12846FFF74CFC60B178
:10480C0001AA21460748FFF7D1FF2846FFF748FCCD
:10481C00054A0649034800F043FA024807B030BD88
:10482C0030E5032034E50320F4E4032039470D0080
:10483C0070474174704708B5007CFFF7C1FC20EA53
:10484C00E07008BD08B5007CFFF79AFC20EAE07028
:10485C0008BD08B5007CFFF7A3FC30EA200028BF98
:10486C004FF0FF3008BD08B5007CFFF791FC30EA33
:10487C00200028BF4FF0FF3008BD007CFFF798BC2C
:10488C0010B51421044600F010FA204610BD70B586
:10489C00457C04460E4625B9007CFFF791FC0028A8
:1048AC0005DD3146207CBDE87040FFF761BC284631
:1048BC0070BD000010B50446084611460022626027
:1048CC004FF47A72A260054A22600122207462744D
:1048DC001A46FFF745FC204610BD00BF90510D0055
:1048EC00F8B5194C25684DB98420FFF7CEFB064668
:1048FC0018B18422294600F03CFB2660134D2E682B
:10490C004EB98420FFF7C1FB074618B1842231460B
:10491C0000F02FFB2F600E4F396811F0010611D1FA
:10492C003846FFF7B8FB68B122682B680948314656
:10493C00FFF7C0FF3846FFF7B3FB074A07490548A6
:10494C0000F0AEF90348F8BD64E503205CE50320F4
:10495C0060E5032048E50320F4E403203D480D0006
:10496C00002211464068FFF7B7BC00221146406890
:10497C00FFF7C2BC00224068FFF7B6BC002281F0F2
:10498C0001014068FFF7A0BC00231A4601214068D2
:10499C00FFF792BC00231A4619464068FFF784BC07
:1049AC00002211464068FFF777BC00221146406890
:1049BC00FFF762BC002202214068FFF765BC0023B0
:1049CC001A464068FFF750BC38B5054688B10468F4
:1049DC004CB1A3681BB103222146204698471021F5
:1049EC00204600F062F928461421BDE8384000F05A
:1049FC005CB938BD10B103685B681847704710B5D7
:104A0C0003680446BBB15868FFF77AFB78B9236892
:104A1C005A7C12B95868FFF77BFB23685868FFF77C
:104A2C007FFB20680023236028B1FFF7CDFF2068AF
:104A3C0008B1FFF7C9FF204610BD38B50446D0F8C1
:104A4C00C40108B1FFF725FBD4F8C00108B1FFF78A
:104A5C0077FBD4F8BC5135B12846FFF7D0FF0421C1
:104A6C00284600F022F9206808B1FFF7C3FF204662
:104A7C0038BD000010B5044B044640F8083BFFF766
:104A8C00DCFF204610BD00BFC0510D0038B50E4CE8
:104A9C000E4B23600025022304F5E4706360A560CF
:104AAC00C4F8C451C4F8C851FFF742FB084BC4F812
:104ABC00CC5184F8D05123602046064A0649BDE803
:104ACC00384000F0EDB800BF68E5032028520D0017
:104ADC00C0510D00F4E40320814A0D000022114660
:104AEC004068FFF7D9BB002211464068FFF7F4BBC2
:104AFC00002211464068FFF7FFBB00224068FFF719
:104B0C00F3BB002281F001014068FFF7DDBB0023FD
:104B1C001A4619464068FFF7CFBB00231A461946C0
:104B2C004068FFF7C1BB002211464068FFF7A4BBE9
:104B3C00002202214068FFF7A7BB00231A464068F9
:104B4C00FFF792BB024B04225A60024A1A6070476C
:104B5C003CE70320F4510D0000231A464068FFF790
:104B6C0083BB002202214068FFF78EBB0022114656
:104B7C004068FFF781BB002211464068FFF78CBBF1
:104B8C0000231A4619464068FFF78EBB00231A46CD
:104B9C0019464068FFF790BB002281F00101406884
:104BAC00FFF792BB00224068FFF79EBB0022114624
:104BBC004068FFF7A1BB002211464068FFF78CBB91
:104BCC002DE9F043002495B016460D460746FFF735
:104BDC0073FD214620220CA8009400F0CAF9402352
:104BEC000C9321466B460CAA3046FFF769FA044633
:104BFC00002844D1024601216868FFF74DFB0221D1
:104C0C00804622466868FFF747FB009E8146214696
:104C1C00002E34D0002932D17368022B02D00A2B1B
:104C2C0009D02AE0B8F1000F27D071693846043159
:104C3C00FFF76FFD20E0B9F1000F1ED0746911224F
:104C4C0001A800F096F906238DF8143001AD04F19B
:104C5C0008031834186859682A4603C20833A3425B
:104C6C001546F7D101A906A807ADFFF733FD0FCD07
:104C7C003C1D0FC42B6823700121F669C8E700980E
:104C8C00FFF716FA384615B0BDE8F083024B034A1D
:104C9C001A6000225A60704744E7032028520D0026
:104CAC000B460146184600F04BB9FFF7F0B900006F
:104CBC00184B1A68D1075CBF01221A60164B1A6890
:104CCC00D2075CBF01221A60144B1A68D0075CBF74
:104CDC0001221A60124B1A68D1075CBF01221A60BC
:104CEC00104B1A68D2075CBF01221A600E4B1A686F
:104CFC00D0075CBF01221A600C4B1A68D1075CBF4D
:104D0C0001221A600A4B1A68D2075CBF01221A6092
:104D1C00704700BF6CE7032068E7032064E70320BB
:104D2C0060E703205CE7032058E7032054E70320E7
:104D3C0050E70320244B1A68D0075CBF01221A608D
:104D4C00224B1A68D1075CBF01221A60204B1A68EB
:104D5C00D2075CBF01221A601E4B1A68D0075CBFD9
:104D6C0001221A601C4B1A68D1075CBF01221A6021
:104D7C001A4B1A68D2075CBF01221A60184B1A68CA
:104D8C00D0075CBF01221A60164B1A68D1075CBFB2
:104D9C0001221A60144B1A68D2075CBF01221A60F8
:104DAC00124B1A68D0075CBF01221A60104B1A68AC
:104DBC00D1075CBF01221A600E4B1A68D2075CBF88
:104DCC0001221A60704700BF9CE7032098E703207C
:104DDC0094E7032090E703208CE7032088E7032067
:104DEC0084E7032080E703207CE7032078E7032097
:104DFC0074E7032070E70320244B1A68D0075CBFCC
:104E0C0001221A60224B1A68D1075CBF01221A607A
:104E1C00204B1A68D2075CBF01221A601E4B1A681D
:104E2C00D0075CBF01221A601C4B1A68D1075CBF0B
:104E3C0001221A601A4B1A68D2075CBF01221A6051
:104E4C00184B1A68D0075CBF01221A60164B1A68FF
:104E5C00D1075CBF01221A60144B1A68D2075CBFE1
:104E6C0001221A60124B1A68D0075CBF01221A602B
:104E7C00104B1A68D1075CBF01221A600E4B1A68DE
:104E8C00D2075CBF01221A60704700BFCCE7032039
:104E9C00C8E70320C4E70320C0E70320BCE70320D6
:104EAC00B8E70320B4E70320B0E70320ACE7032006
:104EBC00A8E70320A4E70320A0E70320184B1A68F7
:104ECC00D1075CBF01221A60164B1A68D2075CBF6F
:104EDC0001221A60144B1A68D0075CBF01221A60B9
:104EEC00124B1A68D1075CBF01221A60104B1A686A
:104EFC00D2075CBF01221A600E4B1A68D0075CBF48
:104F0C0001221A600C4B1A68D1075CBF01221A608F
:104F1C000A4B1A68D2075CBF01221A60704700BFA7
:104F2C00ECE70320E8E70320E4E70320E0E70320B5
:104F3C00DCE70320D8E70320D4E70320D0E70320E5
:104F4C0010B5054C13462CB10A4601460220AFF3AE
:104F5C00008010BD204610BD0000000010B5431E9F
:104F6C000A44914204D011F8014B03F8014FF8E7C1
:104F7C0010BD02440346934202D003F8011BFAE72A
:104F8C007047000038B5124B1C68A36B0546D3B9AB
:104F9C001820FFF7C1F943F20E33A06303804AF6E1
:104FAC00CD33438041F2342383804EF26D63C38052
:104FBC004DF6EC630381052343810B23838101228E
:104FCC000023C0E90423A36B00221D615A6138BD84
:104FDC00F0E40320034613F8012B002AFBD1181A26
:104FEC00013870471D400D0059400D0085400D00E3
:104FFC0089400D00000000000000000000000000CF
:10500C00A3430D0099430D008F430D0085430D0004
:10501C0079430D006D430D0061430D0059430D00A4
:10502C004F430D0045430D00CD4B0D00626175647F
:10503C000053657269616C0053657269616C310073
:10504C007479706500706172616D00636D640069E4
:10505C006400686E64007374726D0066696C740031
:10506C006C766C0061646448616E646C657200728D
:10507C00656D6F766548616E646C657200656E7502
:10508C006D48616E646C657273004A534F4E537475
:10509C007265616D4C6F6748616E646C657200611E
:1050AC00707000253031307520005D2000256400C3
:1050BC002C200028293A2000205B00636F646520B7
:1050CC003D200025690064657461696C73203D2086
:1050DC00000D0A0066006C6E00666E00636F6465FE
:1050EC000064657461696C006E6F6E65007472614A
:1050FC00636500696E666F007761726E006572722F
:10510C006F720070616E696300616C6C005A0025EF
:10511C002B3033643A253032750025592D256D2DF1
:10512C0025645425483A254D3A2553257A00617358
:10513C006374696D65000000000000000000000051
:10514C0061460D0051460D0053460D000000000055
:10515C000000000039470D0089470D0097470D00EE
:10516C004D440D0075470D003B470D0051470D0098
:10517C0083470D0067470D0035470D000000000008
:10518C00000000003D480D008D480D009B480D00AF
:10519C004D440D0051480D0073480D005F480D0043
:1051AC0087480D003F480D0043480D0000000000EB
:1051BC0000000000CB490D00C1490D00B7490D009E
:1051CC00AD490D00A1490D0095490D0089490D000F
:1051DC0081490D0077490D006D490D00CD4B0D0037
:1051EC000000000000000000474B0D003D4B0D007F
:1051FC00334B0D00E94A0D00274B0D001B4B0D00E6
:10520C000F4B0D00074B0D00FD4A0D00F34A0D002E
:10521C00CD4B0D000000000000000000654B0D00A0
:10522C006F4B0D00794B0D00834B0D008D4B0D001A
:10523C00994B0D00A54B0D00B14B0D00B94B0D005A
:10524C00C34B0D00CD4B0D00000000000000000012
:10525C000000000000000000000000000000000042
:10526C000000000000000000000000000000000032
:10527C000000000000000000000000000000000022
:10528C000000000000000000000000000000000012
:10529C000000000000000000000000000000000002
:1052AC00000000000000000043000000B7400D00AB
:1052BC00AD430D00E1430D0025440D00E1440D000C
:1052CC00F1440D0025450D00994A0D00514B0D0080
:1052DC00994C0D00BD4C0D00414D0D00054E0D00BF
:0452EC00C94E0D009A
:0452F00000000000BA
:1052F4003A510D000000000054520D0074520D008C
:1053040094520D00000000000000000000000000A6
:1053140000000000B4520D00000000000000000076
:105324000000000000000000000000000000000079
:105334000000000000000000000000000000000069
:105344000000000000000000000000000000000059
:085354000000000090E40320BA
:10535C00FFFFFFFF00000102030405060708090A0E
:10536C000B0C0D0E0F101112131415161718191A09
:08537C001B1C1D1E1F20280050
:045384007856341211
:04000003D000401CCD
:00000001FF
